:1000000045C0000060C000005EC000005CC0000091
:100010005AC0000058C0000056C0000054C0000084
:1000200052C0000050C000004EC000004CC0000094
:100030004AC0000048C0000046C0000044C00000A4
:100040000AC3000040C000003EC000003CC00000E9
:100050003AC0000038C0000036C0000034C00000C4
:1000600032C0000030C000002EC000002CC00000D4
:100070002AC0000028C0000026C0000024C00000E4
:1000800022C0000020C000001EC0000011241FBEBE
:10009000CFEFD0E1DEBFCDBF12E0A0E0B1E0E4E8F9
:1000A000F0E100E00BBF02C007900D92AC36B10743
:1000B000D9F722E0ACE6B2E001C01D92A338B20746
:1000C000E1F7F0D2DDC79CCFD098D198D398D298E1
:1000D0000895CF92DF92EF92FF921F93CF93DF9319
:1000E000EB0149B321E030E0082E02C0220F331F9C
:1000F0000A94E2F750E024233523A90102C0559564
:1001000047958A95E2F741110EC01881113031F5FB
:100110001882BED460936C0270936D0280936E025D
:1001200090936F0220C04130D9F4188111111AC088
:10013000AFD4C0906C02D0906D02E0906E02F0904F
:100140006F02DC01CB018C199D09AE09BF094597EF
:10015000A105B10540F081E0888305C010E003C02F
:1001600010E001C010E0812FDF91CF911F91FF902F
:10017000EF90DF90CF90089563E071E080E0A9CF29
:10018000089562E071E081E0A4CF089561E071E03C
:1001900082E09FCF089560E071E083E09ACF0895F8
:1001A000EBDF882331F0809171028F5F80937102C1
:1001B00070D0F1DF882331F0809170028F5F8093DF
:1001C000700267D080917102813011F4AAD206C00A
:1001D000823021F480E0A5D21092710280917002E9
:1001E000813029F482E09DD210927102089582300C
:1001F00021F483E096D210927002089585B5836051
:1002000085BD85B5886085BDBF9A0895919A8FE9AF
:100210009FE00197F1F700C0000091988FE99FE0FF
:100220000197F1F700C000000895CF93C82F909870
:1002300082B38F709C2F907F892B82BBE7DF82B3C4
:10024000282F2F7030E1C39FC0011124822B82BB65
:10025000DDDFCF910895CF93C82F909A82B38F702E
:100260009C2F907F892B82BBD1DF82B3282F2F70E8
:1002700030E1C39FC0011124822B82BBC7DFCF9125
:100280000895909892B39F70807F892B82BBBECFD8
:10029000089581E0CADF8FE39FE10197F1F700C085
:1002A000000008958FEF81BB889A899A2FEF89EF1C
:1002B00090E0215080409040E1F700C0000080E3D2
:1002C000E0DF8FE19EE40197F1F700C0000080E3DA
:1002D000D8DF9FEF23EC89E0915020408040E1F788
:1002E00000C0000080E3CDDF88E2CBDF88E09DDF47
:1002F00081E09BDF86E099DF8CE097CF08950F9334
:100300001F93CF93FC018081882351F08F01C0E0BF
:10031000A2DFCF5FF801EC0FF11D80818111F8CFD2
:10032000CF911F910F91089581706F7090E4899F14
:10033000600D1124862F805878CF0895B2D3F4D160
:100340008230C9F480917302909174020196909367
:100350007402809373028091730290917402883EBC
:10036000934048F0109274021092730280917202CE
:1003700081508093720208950F931F93CF93DF9360
:10038000CDB7DEB7C456D1090FB6F894DEBF0FBEA5
:10039000CDBFFE01319694E6DF011D929A95E9F7F3
:1003A000823009F470C028F4882351F0813079F04C
:1003B00046C1833009F4C3C0843009F41AC13FC177
:1003C000B6D18093720281E080937F0238C1809120
:1003D00072028A3038F581E1E4E0F1E08E010F5FCE
:1003E0001F4FD80101900D928A95E1F760E080E0FF
:1003F0009BDFC80184DF809172021F928F9385E199
:1004000091E09F938F931F930F935FD360E081E000
:100410008BDFC80174DF0F900F900F900F900F903B
:100420000F9026C081E1E4E0F1E08E010F5F1F4FE5
:10043000D80101900D928A95E1F760E080E074DFC9
:10044000C8015DDF809172021F928F9381E291E07B
:100450009F938F931F930F9338D360E081E064DF05
:10046000C8014DDF0F900F900F900F900F900F90DD
:10047000809172028111E3C082E080937F025FD19C
:1004800080937202DCC0809172028A3038F580E17C
:10049000EBE2F1E08E010F5F1F4FD80101900D924A
:1004A0008A95E1F760E080E03FDFC80128DF8091B6
:1004B00072021F928F938BE391E09F938F931F9310
:1004C0000F9303D360E081E02FDFC80118DF0F90A6
:1004D0000F900F900F900F900F9026C080E1EBE2ED
:1004E000F1E08E010F5F1F4FD80101900D928A95A8
:1004F000E1F760E080E018DFC80101DF809172025F
:100500001F928F9388E491E09F938F931F930F9393
:10051000DCD260E081E008DFC801F1DE0F900F90CF
:100520000F900F900F900F9080917202811187C0F1
:1005300083E080937F020BD18093720280C0809110
:1005400072028A3038F581E1E3E5F1E08E010F5F58
:100550001F4FD80101900D928A95E1F760E080E08D
:10056000E3DEC801CCDE809172021F928F9384E695
:1005700091E09F938F931F930F93A7D260E081E048
:10058000D3DEC801BCDE0F900F900F900F900F903C
:100590000F9026C081E1E3E5F1E08E010F5F1F4F70
:1005A000D80101900D928A95E1F760E080E0BCDE11
:1005B000C801A5DE809172021F928F9384E791E0BB
:1005C0009F938F931F930F9380D260E081E0ACDE06
:1005D000C80195DE0F900F900F900F900F900F9025
:1005E0008091720281112BC054DE84E080937F02DF
:1005F00026C081E1E2E8F1E0DE01119601900D9262
:100600008A95E1F760E080E08FDECE01019677DE2B
:1006100081E1E3E9F1E0DE01119601900D928A9506
:10062000E1F760E081E080DECE01019668DEB3DDB7
:10063000882329F02EDE80E074D010927F02CC59FE
:10064000DF4F0FB6F894DEBF0FBECDBFDF91CF9165
:100650001F910F9108951F920F920FB60F921124C0
:100660000BB60F922F933F934F935F936F937F93AC
:100670008F939F93AF93BF93EF93FF935FDEFF91B1
:10068000EF91BF91AF919F918F917F916F915F910A
:100690004F913F912F910F900BBE0F900FBE0F9077
:1006A0001F901895CF93DF93CDB7DEB7C456D1090D
:1006B0000FB6F894DEBF0FBECDBF83B7846083BF93
:1006C00087B7816087BF85E082BFFEDCEBDD96DD0A
:1006D000789466DD80918202813051F028F082307A
:1006E00059F0833071F0F5CF8091810237D0F1CF8E
:1006F00080918002E1D0EDCF80917F0290E03CDEDE
:10070000E8CF83E1E4EAF1E0DE01119601900D9279
:100710008A95E1F760E080E007DECE010196EFDD2B
:10072000D8CF8093820208958091820208958091AB
:100730007A02880F982F990F990F890F0895809149
:100740007902880F982F990F990F890F089580913A
:100750007802982F990F990F890F08951F93CF93BF
:10076000DF93CDB7DEB7C456D1090FB6F894DEBF1C
:100770000FBECDBF182FFE01319684E6DF011D921A
:100780008A95E9F7FEDC882399F080918102811136
:1007900005C081E0809381027CDD0AC0813029F4AC
:1007A00082E08093810275DD03C01092810271DDC9
:1007B000113059F120F0123009F44DC072C080E1BF
:1007C000E7EBF1E0DE01119601900D928A95E1F7D9
:1007D00060E080E0A9DDCE01019691DD8CE0E7ECE0
:1007E000F1E0DE01119601900D928A95E1F760E04B
:1007F00081E09ADDCE01019682DD83E080937A026A
:1008000080937902809378024CC08DE0E3EDF1E0B3
:10081000DE01119601900D928A95E1F760E080E08B
:1008200083DDCE0101966BDD8CE0E0EEF1E0DE01D0
:10083000119601900D928A95E1F760E081E074DDF8
:10084000CE0101965CDD82E080937A02809379028A
:100850008093780226C08CE0ECEEF1E0DE01119688
:1008600001900D928A95E1F760E080E05DDDCE01B8
:10087000019645DD8CE0E8EFF1E0DE011196019094
:100880000D928A95E1F760E081E04EDDCE010196A0
:1008900036DD83E080937A028093790281E0809351
:1008A0007802CC59DF4F0FB6F894DEBF0FBECDBF34
:1008B000DF91CF911F9108950F931F93CF93DF93F3
:1008C000CDB7DEB7C456D1090FB6F894DEBF0FBE60
:1008D000CDBF182FFE01319684E6DF011D928A9567
:1008E000E9F74FDC882389F0D4DC80918002811104
:1008F00004C081E08093800208C0813021F482E04E
:100900008093800202C010928002113009F440C02E
:1009100020F0123009F477C0AFC080E1E4E0F2E0EB
:10092000DE01119601900D928A95E1F760E080E07A
:10093000FBDCCE010196E3DC29DC882309F49CC0B2
:10094000809177028F5F843018F48093770202C021
:1009500010927702809177021F928F9384E192E048
:100960009F938F938E010F5F1F4F1F930F93ADD0F7
:1009700060E081E0D9DCC801C2DC8091770280931D
:100980007A020F900F900F900F900F900F9074C0FD
:1009900081E1E5E2F2E0DE01119601900D928A9587
:1009A000E1F760E080E0C0DCCE010196A8DCEEDB80
:1009B000882309F461C0809176028F5F843018F437
:1009C0008093760202C010927602809176021F9286
:1009D0008F9386E392E09F938F938E010F5F1F4F5B
:1009E0001F930F9372D060E081E09EDCC80187DC2A
:1009F00080917602809379020F900F900F900F9064
:100A00000F900F9039C084E1E8E4F2E0DE01119626
:100A100001900D928A95E1F760E080E085DCCE01DF
:100A200001966DDCB3DB882339F1809175028F5F0D
:100A3000843018F48093750202C010927502809180
:100A400075021F928F938CE592E09F938F938E0196
:100A50000F5F1F4F1F930F9338D060E081E064DC7D
:100A6000C8014DDC80917502809378020F900F9041
:100A70000F900F900F900F90CC59DF4F0FB6F89456
:100A8000DEBF0FBECDBFDF91CF911F910F910895B3
:100A900060917B0270917C0280917D0290917E0238
:100AA000089580917B0290917C02A0917D02B0918B
:100AB0007E020196A11DB11D80937B0290937C0262
:100AC000A0937D02B0937E0208950F931F93CF935E
:100AD000DF93CDB7DEB72E970FB6F894DEBF0FBE0B
:100AE000CDBF0D891E8986E08C831A8309838FEF21
:100AF0009FE79E838D83AE01475E5F4F6F89788D40
:100B0000CE01019610D0EF81F885E00FF11F108221
:100B10002E960FB6F894DEBF0FBECDBFDF91CF91FA
:100B20001F910F9108952F923F924F925F926F9273
:100B30007F928F929F92AF92BF92CF92DF92EF926D
:100B4000FF920F931F93CF93DF93CDB7DEB72B9711
:100B50000FB6F894DEBF0FBECDBF6C017B018A01DA
:100B6000FC0117821682838181FFBFC1CE010196ED
:100B70003C01F6019381F70193FD859193FF8191EB
:100B80007F01882309F4ADC1853239F493FD859145
:100B900093FF81917F01853221F4B60190E0D6D197
:100BA000E8CF912C212C312CFFE1F315D8F08B32BA
:100BB00079F038F4803279F08332A1F4232D20616A
:100BC0001DC08D3261F0803369F4232D216016C081
:100BD000832D8260382EE32DE4603E2E2AC0F32D53
:100BE000F8601DC037FC2DC020ED280F2A3040F0E2
:100BF0008E32B9F436FC75C1232D2064322E19C013
:100C000036FE06C08AE0989E200D1124922E11C057
:100C1000EAE02E9E200D1124222EF32DF0623F2EAD
:100C200008C08C3621F4832D8068382E02C08836A7
:100C300041F4F70193FD859193FF81917F0181112B
:100C4000B3CF982F9F7D9554933028F40C5F1F4F9E
:100C50009FE399830DC0833631F0833771F083357C
:100C600009F055C020C0F801808189830E5F1F4FB5
:100C700088248394912C530112C02801F2E04F0E76
:100C8000511CF801A080B18036FE03C0692D70E0D0
:100C900002C06FEF7FEFC5014ED14C018201F32DF1
:100CA000FF773F2E15C0280122E0420E511CF801AB
:100CB000A080B18036FE03C0692D70E002C06FEFE6
:100CC0007FEFC5012DD14C01F32DF0683F2E82013D
:100CD00033FC19C0822D90E088169906A0F4B60165
:100CE00080E290E033D12A94F5CFF50137FC85916D
:100CF00037FE81915F01B60190E028D121102A943E
:100D000021E0821A91088114910479F7E1C08436B8
:100D100011F0893639F5F80137FE07C0608171811D
:100D2000828193810C5F1F4F08C060817181072E03
:100D3000000C880B990B0E5F1F4FF32DFF763F2E93
:100D400097FF09C090958095709561957F4F8F4F63
:100D50009F4FF0683F2E2AE030E0A30133D1882E68
:100D6000861844C0853731F4232D2F7EB22E2AE019
:100D700030E025C0932D997FB92E8F36C1F018F43D
:100D8000883579F0AEC0803719F0883721F0A9C0D6
:100D9000E92FE061BE2EB4FE0DC0FB2DF460BF2E26
:100DA00009C034FE0AC0292F2660B22E06C028E0F2
:100DB00030E005C020E130E002C020E132E0F8017F
:100DC000B7FE07C060817181828193810C5F1F4FE4
:100DD00006C06081718180E090E00E5F1F4FA3012B
:100DE000F1D0882E8618FB2DFF773F2E36FE0DC0E2
:100DF000232D2E7FA22E891458F434FE0BC032FC12
:100E000009C0832D8E7EA82E05C0B82CA32C03C04C
:100E1000B82C01C0B92CA4FE0FC0FE01E80DF11DD5
:100E20008081803321F49A2D997EA92E09C0A2FEDB
:100E300006C0B394B39404C08A2D867809F0B394A5
:100E4000A3FC10C0A0FE06C0B21480F4280C922CA3
:100E50009B180DC0B21458F4B60180E290E076D031
:100E6000B394F8CFB21418F42B1802C0982C212C8C
:100E7000A4FE0FC0B60180E390E068D0A2FE16C0C9
:100E8000A1FC03C088E790E002C088E590E0B601CD
:100E90000CC08A2D867851F0A1FE02C08BE201C001
:100EA00080E2A7FC8DE2B60190E050D0891430F4C6
:100EB000B60180E390E04AD09A94F8CF8A94F30187
:100EC000E80DF11D8081B60190E040D08110F6CF91
:100ED000222009F44ECEB60180E290E037D02A9469
:100EE000F7CFF6018681978102C08FEF9FEF2B9697
:100EF0000FB6F894DEBF0FBECDBFDF91CF911F912B
:100F00000F91FF90EF90DF90CF90BF90AF909F90A8
:100F10008F907F906F905F904F903F902F900895AB
:100F2000FC010590615070400110D8F780959095B4
:100F30008E0F9F1F0895FC016150704001900110B9
:100F4000D8F7809590958E0F9F1F08950F931F934C
:100F5000CF93DF93FB01238121FD03C08FEF9FEF30
:100F60002CC022FF16C0468157812481358142174B
:100F7000530744F4A081B1819D012F5F3F4F31831E
:100F800020838C93268137812F5F3F4F37832683C1
:100F900014C08B01EC01FB010084F185E02D099563
:100FA000892BE1F6D80116968D919C9117970196A1
:100FB00017969C938E931697CE01DF91CF911F9138
:100FC0000F910895FA01AA27283051F1203181F1BB
:100FD000E8946F936E7F6E5F7F4F8F4F9F4FAF4F41
:100FE000B1E03ED0B4E03CD0670F781F891F9A1F54
:100FF000A11D680F791F8A1F911DA11D6A0F711D08
:10100000811D911DA11D20D009F468943F912AE013
:10101000269F11243019305D3193DEF6CF010895FB
:10102000462F4770405D4193B3E00FD0C9F7F6CF2C
:10103000462F4F70405D4A3318F0495D31FD4052F4
:10104000419302D0A9F7EACFB4E0A695979587958A
:1010500077956795BA95C9F7009761057105089569
:101060009B01AC010A2E0694579547953795279515
:10107000BA95C9F7620F731F841F951FA01D0895AD
:04108000F894FFCF12
:10108400010101012D2D2D2D2D2057415348202DD7
:101094002D2D2D2D0057617368203A2025303264A0
:1010A4000057617368203A202564002D2D2D2D20D2
:1010B40052494E5345202D2D2D2D0052696E7365D6
:1010C400203A20253032640052696E7365203A203C
:1010D4002564002D2D2D205350494E2D4452592066
:1010E4002D2D2D005370696E2D647279203A2025C0
:1010F400303264005370696E2D647279203A202571
:1011040064002D2D2D2D2D20454E44202D2D2D2DCB
:101114002D2D0054616B65204F6666204C61756E01
:10112400647279002D2D2D2D2D2D2053544F5020D8
:101134002D2D2D2D2D2D004D6F6465203A205374D7
:10114400616E6461726400573A3320523A3320442A
:101154003A33004D6F6465203A20517569636B0022
:10116400573A3220523A3220443A32004D6F646585
:10117400203A20576F6F6C00573A3320523A33208D
:10118400443A31004D6F6465203A205761736820FA
:1011940053657400576173682054696D65203A2063
:1011A40025303264004D6F6465203A2052696E73B5
:1011B40065205365740052696E73652054696D65CA
:1011C400203A2025303264004D6F6465203A205364
:1011D40070696E2D647279205365740044727920AD
:0C11E40054696D65203A2025303264000B
:00000001FF
