:1000000052C000006DC000006BC0000069C000005D
:1000100067C0000065C0000063C0000061C0000050
:100020005FC000005DC000005BC0000059C0000060
:1000300057C0000055C0000053C0000051C0000070
:10004000C6C100004DC000004BC0000049C0000008
:1000500047C0000045C0000043C0000041C0000090
:100060003FC000003DC000003BC0000039C00000A0
:1000700037C0000035C0000033C0000031C00000B0
:100080002FC000002DC000002BC00000C701E301FD
:10009000C501E501CA01CD01CF01D101D301D901CB
:1000A000DC01DF01D60111241FBECFEFD0E1DEBF9E
:1000B000CDBF11E0A0E0B1E0E2EBFAE000E00BBF61
:1000C00002C007900D92A435B107D9F721E0A4E54D
:1000D000B1E001C01D92A03CB207E1F7A5D1E7C491
:1000E0008FCF3E9A86B1876086B9379A86B186B936
:1000F0000895FC01108211820895FC0181E02081A5
:100100009181291380E00895FC018181833611F0EB
:100110008F5F01C080E09081981308C080E191E07A
:100120009F938F93D6D18FEF9FEFC1D48183E80F38
:10013000F11D62830895FC0180819181891308C0BB
:1001400084E291E09F938F93C4D18FEF9FEFAFD460
:10015000833611F08F5F01C080E08083E80FF11DCE
:1001600082810895919A8FE99FE00197F1F700C08D
:10017000000091988FE99FE00197F1F700C000001F
:100180000895CF93C82F909882B38F709C2F907F43
:10019000892B82BBE7DF82B3282F2F7030E1C39F0A
:1001A000C0011124822B82BBDDDFCF910895CF9354
:1001B000C82F909A82B38F709C2F907F892B82BB1F
:1001C000D1DF82B3282F2F7030E1C39FC0011124EB
:1001D000822B82BBC7DFCF910895909892B39F7016
:1001E000807F892B82BBBECF08958FEF81BB889A19
:1001F000899A2FEF89EF90E0215080409040E1F7FD
:1002000000C0000080E3E9DF8FE19EE40197F1F791
:1002100000C0000080E3E1DF9FEF23EC89E0915014
:1002200020408040E1F700C0000080E3D6DF88E294
:10023000D4DF88E0A6DF81E0A4DF86E0A2DF8CE0E7
:10024000A0CF08950F931F93CF93FC018081882343
:1002500051F08F01C0E0ABDFCF5FF801EC0FF11D73
:1002600080818111F8CFCF911F910F9108958170F6
:100270006F7090E4899F600D1124862F805881CF84
:1002800008958FE08ABB8FEF8BBB0895CF93DF93E8
:100290009BB39F609BBB9BB3A62FB0E021E030E0F7
:1002A000062E02C0220F331F0A94E2F7209529235D
:1002B0002BBB24E130E021503109E9F749B3E82FA5
:1002C000F0E0EF01249621E030E00C2E02C0220F76
:1002D000331F0A94E2F750E02423352302C03595FA
:1002E0002795CA95E2F7211110C0EE0FFF1FEE0F00
:1002F000FF1FAE0FBF1F1196FD01E050FF4F808121
:100300008130D1F4108280E01CC02130B9F4EE0FAE
:10031000FF1FEE0FFF1FAE0FBF1F1196FD01E05034
:10032000FF4F908191110CC091E09083880F880F4E
:10033000680F81E0860F05C080E003C080E001C047
:1003400080E0DF91CF910895CF93DF93D0E00BC091
:100350006C2F8D2F9BDF811109C0CF5FC430C1F797
:10036000DF5FD43011F0C0E0F3CF80E0DF91CF91B8
:100370000895DC01EC918E2F90E0FC013497ED3074
:10038000F10500F5EA5BFF4F9BC085E0089589E326
:1003900091E008958BE391E0089587E0089588E067
:1003A000089589E008958DE391E008958FE391E049
:1003B000089581E491E0089583E491E0089585E44F
:1003C00091E00895089584E0089586E008951F92CD
:1003D0000F920FB60F9211240BB60F922F933F93EB
:1003E0004F935F936F937F938F939F93AF93BF933D
:1003F000EF93FF93A9DF882321F0682F84E591E034
:1004000083DEFF91EF91BF91AF919F918F917F918B
:100410006F915F914F913F912F910F900BBE0F9075
:100420000FBE0F901F901895CF93DF93CDB7DEB717
:10043000C957D1090FB6F894DEBF0FBECDBF83B741
:10044000846083BF87B7816087BF82B7856082BFC2
:1004500048DE17DFCADE84E591E04BDE78946E015A
:1004600082E0C80ED11C0F2EF7E4EF2EF1E0FF2E34
:10047000F02D8E010A5E1F4F84E591E03EDE811172
:10048000FBCF84E591E057DE8983843020F0CE01F4
:1004900001966FDF898389818A83DF92CF92FF92F1
:1004A000EF921F930F9328D060E080E0E0DEC80158
:1004B000C9DE0F900F900F900F900F900F90DCCF30
:1004C000EE0FFF1F0024001C0BBE0790F691E02DDD
:1004D0000994CF93DF93CDB7DEB7AE014B5F5F4F8B
:1004E000FA0161917191AF018091BC019091BD01C0
:1004F00031D0DF91CF9108950F931F93CF93DF9366
:10050000CDB7DEB72E970FB6F894DEBF0FBECDBFC6
:100510000D891E8986E08C831A8309838FEF9FE7FC
:100520009E838D83AE01475E5F4F6F89788DCE01CC
:10053000019610D0EF81F885E00FF11F10822E9602
:100540000FB6F894DEBF0FBECDBFDF91CF911F91E4
:100550000F9108952F923F924F925F926F927F92E8
:100560008F929F92AF92BF92CF92DF92EF92FF92C3
:100570000F931F93CF93DF93CDB7DEB72B970FB6B3
:10058000F894DEBF0FBECDBF6C017B018A01FC0178
:1005900017821682838181FFBFC1CE0101963C0183
:1005A000F6019381F70193FD859193FF81917F017E
:1005B000882309F4ADC1853239F493FD859193FF09
:1005C00081917F01853221F4B60190E0D6D1E8CF48
:1005D000912C212C312CFFE1F315D8F08B3279F0DE
:1005E00038F4803279F08332A1F4232D20611DC0CC
:1005F0008D3261F0803369F4232D216016C0832D84
:100600008260382EE32DE4603E2E2AC0F32DF86080
:100610001DC037FC2DC020ED280F2A3040F08E324F
:10062000B9F436FC75C1232D2064322E19C036FE74
:1006300006C08AE0989E200D1124922E11C0EAE097
:100640002E9E200D1124222EF32DF0623F2E08C085
:100650008C3621F4832D8068382E02C0883641F410
:10066000F70193FD859193FF81917F018111B3CFB4
:10067000982F9F7D9554933028F40C5F1F4F9FE374
:1006800099830DC0833631F0833771F0833509F0DB
:1006900055C020C0F801808189830E5F1F4F8824D8
:1006A0008394912C530112C02801F2E04F0E511C8B
:1006B000F801A080B18036FE03C0692D70E002C051
:1006C0006FEF7FEFC5014ED14C018201F32DFF7713
:1006D0003F2E15C0280122E0420E511CF801A080D7
:1006E000B18036FE03C0692D70E002C06FEF7FEF6E
:1006F000C5012DD14C01F32DF0683F2E820133FC52
:1007000019C0822D90E088169906A0F4B60180E207
:1007100090E033D12A94F5CFF50137FC859137FE6F
:1007200081915F01B60190E028D121102A9421E047
:10073000821A91088114910479F7E1C0843611F08E
:10074000893639F5F80137FE07C0608171818281F1
:1007500093810C5F1F4F08C060817181072E000CD0
:10076000880B990B0E5F1F4FF32DFF763F2E97FFDF
:1007700009C090958095709561957F4F8F4F9F4FE1
:10078000F0683F2E2AE030E0A30133D1882E86188E
:1007900044C0853731F4232D2F7EB22E2AE030E07D
:1007A00025C0932D997FB92E8F36C1F018F4883566
:1007B00079F0AEC0803719F0883721F0A9C0E92F51
:1007C000E061BE2EB4FE0DC0FB2DF460BF2E09C04B
:1007D00034FE0AC0292F2660B22E06C028E030E081
:1007E00005C020E130E002C020E132E0F801B7FEB0
:1007F00007C060817181828193810C5F1F4F06C0A9
:100800006081718180E090E00E5F1F4FA301F1D005
:10081000882E8618FB2DFF773F2E36FE0DC0232D28
:100820002E7FA22E891458F434FE0BC032FC09C06E
:10083000832D8E7EA82E05C0B82CA32C03C0B82C07
:1008400001C0B92CA4FE0FC0FE01E80DF11D80818E
:10085000803321F49A2D997EA92E09C0A2FE06C0EC
:10086000B394B39404C08A2D867809F0B394A3FCA2
:1008700010C0A0FE06C0B21480F4280C922C9B1865
:100880000DC0B21458F4B60180E290E076D0B39473
:10089000F8CFB21418F42B1802C0982C212CA4FE07
:1008A0000FC0B60180E390E068D0A2FE16C0A1FCA4
:1008B00003C088E790E002C088E590E0B6010CC074
:1008C0008A2D867851F0A1FE02C08BE201C080E241
:1008D000A7FC8DE2B60190E050D0891430F4B60147
:1008E00080E390E04AD09A94F8CF8A94F301E80D1F
:1008F000F11D8081B60190E040D08110F6CF22201A
:1009000009F44ECEB60180E290E037D02A94F7CFBA
:10091000F6018681978102C08FEF9FEF2B960FB66D
:10092000F894DEBF0FBECDBFDF91CF911F910F9125
:10093000FF90EF90DF90CF90BF90AF909F908F90FF
:100940007F906F905F904F903F902F900895FC01A3
:100950000590615070400110D8F7809590958E0FEA
:100960009F1F0895FC016150704001900110D8F75D
:10097000809590958E0F9F1F08950F931F93CF938F
:10098000DF93FB01238121FD03C08FEF9FEF2CC07C
:1009900022FF16C0468157812481358142175307B3
:1009A00044F4A081B1819D012F5F3F4F31832083AB
:1009B0008C93268137812F5F3F4F3783268314C066
:1009C0008B01EC01FB010084F185E02D0995892B59
:1009D000E1F6D80116968D919C911797019617967E
:1009E0009C938E931697CE01DF91CF911F910F911B
:1009F0000895FA01AA27283051F1203181F1E894B5
:100A00006F936E7F6E5F7F4F8F4F9F4FAF4FB1E001
:100A10003ED0B4E03CD0670F781F891F9A1FA11DFC
:100A2000680F791F8A1F911DA11D6A0F711D811DFD
:100A3000911DA11D20D009F468943F912AE0269FC2
:100A400011243019305D3193DEF6CF010895462F21
:100A50004770405D4193B3E00FD0C9F7F6CF462F02
:100A60004F70405D4A3318F0495D31FD405241936B
:100A700002D0A9F7EACFB4E0A69597958795779528
:100A80006795BA95C9F700976105710508959B01AF
:100A9000AC010A2E06945795479537952795BA9538
:100AA000C9F7620F731F841F951FA01D0895F89446
:020AB000FFCF76
:100AB2000101010101010101010101010101010124
:100AC2005175657565204D656D6F7279204572723D
:100AD2006F7221005175657565204D656D6F727974
:100AE200204572726F722120002B002D002A002FE8
:100AF20000230030003D004B6579506164203A20AC
:040B02002573000057
:00000001FF
