:1000000045C0000060C000005EC000005CC0000091
:100010005AC0000058C0000056C0000054C0000084
:1000200052C0000050C000004EC000004CC0000094
:100030004AC0000048C0000046C0000044C00000A4
:1000400009C3000040C000003EC000003CC00000EA
:100050003AC0000038C0000036C0000034C00000C4
:1000600032C0000030C000002EC000002CC00000D4
:100070002AC0000028C0000026C0000024C00000E4
:1000800022C0000020C000001EC0000011241FBEBE
:10009000CFEFD0E1DEBFCDBF11E0A0E0B1E0E0E8FE
:1000A000FEE000E00BBF02C007900D92A437B1073D
:1000B000D9F721E0A4E7B1E001C01D92A63EB20746
:1000C000E1F703D3DBC69CCF3E9A86B1876086B941
:1000D000379A86B186B90895FC011082118208957D
:1000E000FC0181E020819181291380E00895FC01C9
:1000F0008181833611F08F5F01C080E09081981379
:1001000008C084E391E09F938F93CAD38FEF9FEF52
:10011000B5D68183E80FF11D62830895FC018081CB
:100120009181891308C088E491E09F938F93B8D39D
:100130008FEF9FEFA3D6833611F08F5F01C080E071
:100140008083E80FF11D82810895919A8FE99FE0E5
:100150000197F1F700C0000091988FE99FE00197A7
:10016000F1F700C000000895CF93C82F909882B394
:100170008F709C2F907F892B82BBE7DF82B3282F63
:100180002F7030E1C39FC0011124822B82BBDDDFC1
:10019000CF910895CF93C82F909A82B38F709C2FE0
:1001A000907F892B82BBD1DF82B3282F2F7030E163
:1001B000C39FC0011124822B82BBC7DFCF9108955A
:1001C000909892B39F70807F892B82BBBECF089599
:1001D00081E0CADF8FE39FE10197F1F700C00000E3
:1001E00008958FEF81BB889A899A2FEF89EF90E06D
:1001F000215080409040E1F700C0000080E3E0DF44
:100200008FE19EE40197F1F700C0000080E3D8DFA2
:100210009FEF23EC89E0915020408040E1F700C03F
:10022000000080E3CDDF88E2CBDF88E09DDF81E066
:100230009BDF86E099DF8CE097CF08950F931F93A3
:10024000CF93FC018081882351F08F01C0E0A2DFB1
:10025000CF5FF801EC0FF11D80818111F8CFCF91B4
:100260001F910F91089581706F7090E4899F600DC8
:100270001124862F805878CF08958FE08ABB8FEFA6
:100280008BBB0895CF93DF939BB39F609BBB9BB3C6
:10029000A62FB0E021E030E0062E02C0220F331F6F
:1002A0000A94E2F7209529232BBB24E130E021506A
:1002B0003109E9F749B3E82FF0E0EF01249621E096
:1002C00030E00C2E02C0220F331F0A94E2F750E0F8
:1002D0002423352302C035952795CA95E2F72111CD
:1002E00010C0EE0FFF1FEE0FFF1FAE0FBF1F1196C6
:1002F000FD01E05EFE4F80818130D9F4108280E004
:100300001DC02130C1F4EE0FFF1FEE0FFF1FAE0F17
:10031000BF1F1196FD01E05EFE4F908191110DC04F
:1003200091E09083982F990F890F680F81E0860FD5
:1003300005C080E003C080E001C080E0DF91CF9184
:1003400008959BB39F609BBB9BB370E0AB014D5F77
:100350005F4F21E030E002C0220F331F4A95E2F7E1
:10036000209529232BBB24E130E021503109E9F706
:1003700049B3E82FF0E0DF01149621E030E00A2EC7
:1003800002C0220F331F0A94E2F750E024233523E2
:1003900002C035952795AA95E2F7211112C0EE0FFC
:1003A000FF1FEE0FFF1F6E0F7F1FFB01E05FFE4F71
:1003B00080818130C9F4FB01E05FFE4F108280E054
:1003C0000895213099F4EE0FFF1FEE0FFF1FE60F87
:1003D000F71FDF01A05FBE4F9C91911109C0FD0185
:1003E00091E09083835F089580E0089580E0089510
:1003F00080E008959BB39F609BBB9BB3A62FB0E0AA
:1004000021E030E0062E02C0220F331F0A94E2F7EB
:10041000209529232BBB24E130E021503109E9F755
:1004200049B3E82FF0E0CF01079621E030E0082E35
:1004300002C0220F331F0A94E2F750E02423352331
:1004400002C0359527958A95E2F7211110C0EE0F6D
:10045000FF1FEE0FFF1FEA0FFB1FDF01A050BF4F72
:100460008C918130D1F4FD01108280E0089521301B
:10047000B1F4CF01880F991F880F991FFC01EA0F73
:10048000FB1FDF01A050BF4F8C9181110AC0FD01FD
:1004900081E080838AE0860F089580E0089580E0FF
:1004A000089580E00895CF93DF93D0E00BC06C2FC8
:1004B0008D2FE8DE811109C0CF5FC330C1F7DF5F48
:1004C000D33011F0C0E0F3CF80E0DF91CF910895F9
:1004D000CF93C0E003C0CF5FC43031F060E08C2F19
:1004E00030DF8823C1F301C080E0CF910895CF931E
:1004F000C0E06C2F80E07EDF811103C0CF5FC3308E
:10050000C1F7CF9108950F931F93CF93DF93CDB78A
:10051000DEB7C456D1090FB6F894DEBF0FBECDBF0B
:10052000FE01319694E6DF011D929A95E9F781303C
:1005300039F138F0823009F442C0833009F460C0E8
:100540007DC09091770180917601890F8093790128
:100550001F928F938DE591E09F938F938E010F5F94
:100560001F4F1F930F93AFD160E081E07CDEC80185
:1005700065DE0F900F900F900F900F900F905EC060
:100580008091770190917601891B809379011F9268
:100590008F938DE591E09F938F938E010F5F1F4F97
:1005A0001F930F9390D160E081E05DDEC80146DECD
:1005B0000F900F900F900F900F900F903FC0809171
:1005C000770190917601899F802D11248093790184
:1005D0001F928F938DE591E09F938F938E010F5F14
:1005E0001F4F1F930F936FD160E081E03CDEC80185
:1005F00025DE0F900F900F900F900F900F901EC060
:1006000080917701609176013FD1809379011F92AB
:100610008F938DE591E09F938F938E010F5F1F4F16
:100620001F930F9350D160E081E01DDEC80106DE0C
:100630000F900F900F900F900F900F90CC59DF4FAD
:100640000FB6F894DEBF0FBECDBFDF91CF911F91E3
:100650000F9108951F920F920FB60F9211240BB6AF
:100660000F922F933F934F935F936F937F938F934B
:100670009F93AF93BF93EF93FF9315DF882321F0F0
:10068000682F8AE791E033DD23DF882321F0682F8C
:100690008AE791E02CDD2BDF882321F0682F8AE7A1
:1006A00091E025DDFF91EF91BF91AF919F918F91E7
:1006B0007F916F915F914F913F912F910F900BBE62
:1006C0000F900FBE0F901F901895CF93DF93CDB76B
:1006D000DEB7C85CD1090FB6F894DEBF0FBECDBF40
:1006E00083B7846083BF87B7816087BF82B7856027
:1006F00082BFEADCC2DD75DD8AE791E0EDDC84E6ED
:10070000FE013196DF01982F1D929A95E9F7EC5979
:10071000FF4FDF011D928A95E9F778940F2EF1E7DC
:10072000AF2EF1E0BF2EF02D6F01662463940F2EE3
:10073000F9E6EF2EF1E0FF2EF02DCE0101962C010F
:100740000F2EF6E68F2EF1E09F2EF02D8AE791E036
:10075000C7DC8111FBCF8AE791E0E0DC182F8B30FA
:1007600008F040C08A3009F48AC080917501813058
:10077000F9F401C010E0809174018130C9F41F9236
:100780001F939F928F925F924F929DD069E080E07D
:100790006ADDC20153DD109376011092750110924B
:1007A00074010F900F900F900F900F900F903FC01B
:1007B0000FDD1F921F93FF92EF925F924F9283D0B3
:1007C00060E080E050DDC20139DD10937701609276
:1007D00075010F900F900F900F900F900F901D309C
:1007E00030F106C08D3018F1809175018130F9F437
:1007F000E3EFE10FE0937801F0E0E05DFE4F8081F0
:100800001F928F93BF92AF92DF92CF925CD067E03E
:1008100080E029DDC60112DD6092740160927501ED
:100820000F900F900F900F900F900F908FCF1B3065
:1008300031F4CEDC109275011092740187CF1C3018
:1008400009F084CF809178015EDE80CFC1DC1F92F9
:100850001F92FF92EF925F924F9235D060E080E05E
:1008600002DDC201EBDC10927701609275010F90FE
:100870000F900F900F900F900F9010E0D8CF8091B5
:100880007501813019F776CF991B79E004C0991F63
:10089000961708F0961B881F7A95C9F780950895DA
:1008A000CF93DF93CDB7DEB7AE014B5F5F4FFA0159
:1008B00061917191AF018091E2019091E30131D09A
:1008C000DF91CF9108950F931F93CF93DF93CDB70F
:1008D000DEB72E970FB6F894DEBF0FBECDBF0D89E1
:1008E0001E8986E08C831A8309838FEF9FE79E839E
:1008F0008D83AE01475E5F4F6F89788DCE01019683
:1009000010D0EF81F885E00FF11F10822E960FB600
:10091000F894DEBF0FBECDBFDF91CF911F910F9135
:1009200008952F923F924F925F926F927F928F9293
:100930009F92AF92BF92CF92DF92EF92FF920F936E
:100940001F93CF93DF93CDB7DEB72B970FB6F894F5
:10095000DEBF0FBECDBF6C017B018A01FC01178297
:100960001682838181FFBFC1CE0101963C01F60151
:100970009381F70193FD859193FF81917F018823F6
:1009800009F4ADC1853239F493FD859193FF8191CE
:100990007F01853221F4B60190E0D6D1E8CF912CC9
:1009A000212C312CFFE1F315D8F08B3279F038F49B
:1009B000803279F08332A1F4232D20611DC08D3265
:1009C00061F0803369F4232D216016C0832D82608D
:1009D000382EE32DE4603E2E2AC0F32DF8601DC0B2
:1009E00037FC2DC020ED280F2A3040F08E32B9F4AC
:1009F00036FC75C1232D2064322E19C036FE06C088
:100A00008AE0989E200D1124922E11C0EAE02E9EBD
:100A1000200D1124222EF32DF0623F2E08C08C36BB
:100A200021F4832D8068382E02C0883641F4F70106
:100A300093FD859193FF81917F018111B3CF982F11
:100A40009F7D9554933028F40C5F1F4F9FE399834B
:100A50000DC0833631F0833771F0833509F055C00E
:100A600020C0F801808189830E5F1F4F8824839402
:100A7000912C530112C02801F2E04F0E511CF801D5
:100A8000A080B18036FE03C0692D70E002C06FEF18
:100A90007FEFC5014ED14C018201F32DFF773F2E30
:100AA00015C0280122E0420E511CF801A080B1803F
:100AB00036FE03C0692D70E002C06FEF7FEFC50105
:100AC0002DD14C01F32DF0683F2E820133FC19C06B
:100AD000822D90E088169906A0F4B60180E290E09D
:100AE00033D12A94F5CFF50137FC859137FE8191FA
:100AF0005F01B60190E028D121102A9421E0821AEA
:100B000091088114910479F7E1C0843611F0893697
:100B100039F5F80137FE07C06081718182819381C8
:100B20000C5F1F4F08C060817181072E000C880B7D
:100B3000990B0E5F1F4FF32DFF763F2E97FF09C0D5
:100B400090958095709561957F4F8F4F9F4FF0687E
:100B50003F2E2AE030E0A30133D1882E861844C00E
:100B6000853731F4232D2F7EB22E2AE030E025C0C8
:100B7000932D997FB92E8F36C1F018F4883579F00E
:100B8000AEC0803719F0883721F0A9C0E92FE061A5
:100B9000BE2EB4FE0DC0FB2DF460BF2E09C034FE86
:100BA0000AC0292F2660B22E06C028E030E005C01A
:100BB00020E130E002C020E132E0F801B7FE07C0DA
:100BC00060817181828193810C5F1F4F06C06081BB
:100BD000718180E090E00E5F1F4FA301F1D0882E5D
:100BE0008618FB2DFF773F2E36FE0DC0232D2E7F5E
:100BF000A22E891458F434FE0BC032FC09C0832D98
:100C00008E7EA82E05C0B82CA32C03C0B82C01C022
:100C1000B92CA4FE0FC0FE01E80DF11D80818033C8
:100C200021F49A2D997EA92E09C0A2FE06C0B39484
:100C3000B39404C08A2D867809F0B394A3FC10C045
:100C4000A0FE06C0B21480F4280C922C9B180DC094
:100C5000B21458F4B60180E290E076D0B394F8CFA5
:100C6000B21418F42B1802C0982C212CA4FE0FC02B
:100C7000B60180E390E068D0A2FE16C0A1FC03C0DC
:100C800088E790E002C088E590E0B6010CC08A2DAC
:100C9000867851F0A1FE02C08BE201C080E2A7FC81
:100CA0008DE2B60190E050D0891430F4B60180E3B3
:100CB00090E04AD09A94F8CF8A94F301E80DF11DA0
:100CC0008081B60190E040D08110F6CF222009F457
:100CD0004ECEB60180E290E037D02A94F7CFF601ED
:100CE0008681978102C08FEF9FEF2B960FB6F89405
:100CF000DEBF0FBECDBFDF91CF911F910F91FF904F
:100D0000EF90DF90CF90BF90AF909F908F907F90AB
:100D10006F905F904F903F902F900895FC01059049
:100D2000615070400110D8F7809590958E0F9F1FED
:100D30000895FC016150704001900110D8F7809532
:100D400090958E0F9F1F08950F931F93CF93DF935E
:100D5000FB01238121FD03C08FEF9FEF2CC022FFF9
:100D600016C046815781248135814217530744F4C8
:100D7000A081B1819D012F5F3F4F318320838C93F0
:100D8000268137812F5F3F4F3783268314C08B0125
:100D9000EC01FB010084F185E02D0995892BE1F63A
:100DA000D80116968D919C911797019617969C9352
:100DB0008E931697CE01DF91CF911F910F910895D9
:100DC000FA01AA27283051F1203181F1E8946F937C
:100DD0006E7F6E5F7F4F8F4F9F4FAF4FB1E03ED022
:100DE000B4E03CD0670F781F891F9A1FA11D680FC0
:100DF000791F8A1F911DA11D6A0F711D811D911DF3
:100E0000A11D20D009F468943F912AE0269F112467
:100E10003019305D3193DEF6CF010895462F4770CB
:100E2000405D4193B3E00FD0C9F7F6CF462F4F7026
:100E3000405D4A3318F0495D31FD4052419302D084
:100E4000A9F7EACFB4E0A69597958795779567952A
:100E5000BA95C9F700976105710508959B01AC012A
:100E60000A2E06945795479537952795BA95C9F751
:100E7000620F731F841F951FA01D0895F894FFCF64
:100E80000101010101010101010101010101010152
:100E90000101010101010101010101010101010142
:100EA0000101010101010101010101010101010132
:100EB0002B2D2A2F5175657565204D656D6F7279E3
:100EC000204572726F7221005175657565204D6500
:100ED0006D6F7279204572726F72212000526573B6
:100EE000756C74203A2025640043616C3A202564B7
:040EF0000025630076
:00000001FF
